:020000040000FA
:1000000028030020F100000017010000D5000000C7
:1000100000000000000000000000000000000000E0
:100020000000000000000000000000001B010000B4
:1000300000000000000000001D0100001F01000082
:100040002101000021010000210100002101000028
:100050002101000021010000210100002101000018
:1000600021010000210D00002101000021010000FC
:10007000610D0000210100002101000021010000AC
:1000800021010000210100002101000021010000E8
:1000900021010000210100002101000021010000D8
:1000A00021010000210100002101000021010000C8
:1000B00021010000210100002101000021010000B8
:1000C0000348854600F09AF800480047C91500002B
:1000D0002803002004207146084202D0EFF3098073
:1000E00001E0EFF308807146004A10470508000060
:1000F0000C480D4901600D4901600D4901600D4A30
:100100000D4911600D4A0E491160002101600D4832
:1001100080470D480047FEE7FEE7FEE7FEE7FEE703
:10012000FEE700000001004059000000160000003A
:100130008800000024000040A55A00008002004012
:1001400001000000050C0000C100000030B50B46A6
:10015000014600202022012409E00D46D5409D42A1
:1001600005D31D469540491B254695404019154627
:10017000521E002DF1DC30BD03460B439B0703D01C
:1001800009E008C9121F08C0042AFAD203E00B785C
:100190000370401C491C521EF9D27047F0B51FB4C1
:1001A0000646002082B005464024019100901BE0E5
:1001B000019922460F46304600F042F8049A059B0A
:1001C000801A994110D310461946224600F028F8AB
:1001D000361A8F410197224601200021009F00F02E
:1001E0001FF838184D4100902046641E0028DFDCBF
:1001F000019B00982946324607B0F0BD064C012508
:10020000064E05E0E36807CC2B430C3C98471034BE
:10021000B442F7D3FFF758FF80170000A017000083
:1002200010B5202A04DB0146203A9140002010BD81
:10023000914020239C1A0346E3401943904010BD8F
:1002400010B5202A04DB0846203AD040002110BD1A
:100250000B46D340D0402024A21A914008431946AF
:1002600010BD00000EB509490EC900910192810F21
:100270008A00029369468A58054951184A68C3069C
:10028000DB0E0120984002434A600EBD4817000073
:100290000002004002490A6802430A6070470000F9
:1002A0000002004010B500F063FC0148006810BD7A
:1002B0000000002002480068C00700D001487047D5
:1002C000000200400048E80104480068800702D5A9
:1002D0000120C0037047002070470000000200406A
:1002E00010B500F045FC0448406B41070348490F36
:1002F0000068C84010BD000000020040000000205F
:1003000010B500F035FC0448406B4006410F03482F
:100310000068C84010BD000000020040000000203E
:1003200008B511A000681149009009680020052255
:100330001204114216D1080301D50D4800E00D4802
:100340008A030FD40A04920F6B469B5CCA0589048A
:10035000D20DC90E891C8008921C59435043FFF7E7
:10036000F5FE800008BD00000102020440020040CA
:10037000001BB7000048E801F3B5124881B00569D9
:100380000F4610200F4C0540403C206804263043A7
:100390002060102000F062F82069072108432061E6
:1003A000206A0009000138432062206988430199CE
:1003B0000843206100F0DCFB002D02D12068B0432F
:1003C0002060FEBD40020040F0B5194B88B0F0CB74
:1003D000009401ACE0C478CB04AF78C7840A23064C
:1003E0001B0E0ED003039B0F9B0004ADEB58114D69
:1003F0005B19E5B28405E40EA5401C68AC431443C8
:100400001C60420E520710D08200920F92006B4681
:100410009A58084B103BD21803015B0FC001C00E65
:100420008340106898430843106008B0F0BD000096
:100430002817000020020040064909684843064981
:10044000486100228A61052008610869C003FCD563
:100450000A6170470400002000E000E010B5044687
:100460000749084B05E00A46491E002A01DC002026
:1004700010BD1A6920469043F5D1012010BD00003F
:1004800080F5200040020040F8B5FF206946087062
:10049000002410A000F0F4FD134D144F0126B60601
:1004A00001236A462146287800F0EBFA3846FFF728
:1004B000C3FF0FA000F0E4FDA006F04202D10DA0A2
:1004C00000F0DEFD641CA4B2FF2CE9D90AA000F004
:1004D000D7FDF8BD636C65617220454550524F4DA4
:1004E000202E2E0D0A0000001000002088130000AE
:1004F0002E0000000D0A0000646F6E650D0A0000FA
:1005000010B5FF24013422460021094801F074F897
:1005100008A000F0B5FD0B482346054A00210078ED
:1005200000F0A9FA2146024801F004F810BD0000CD
:100530002400002064756D7020454550524F4D0DCC
:100540000A00000010000020F0B585B000246846C5
:10055000047041A00FC801AE0FC6434D2746A868DE
:10056000000713D5A86808218843A86001206A46BF
:10057000107003466978287800F083FA69786A4633
:10058000481C6870127839A000F07AFDA868C0068F
:1005900016D5A86810218843A860AA78684602701A
:1005A000521CAA70697001236A46287800F069FA23
:1005B0006978481C6870684602782CA000F060FDDD
:1005C000A86840268006002814DAA86820218843FD
:1005D000A8606E703146102301AA287800F051FA05
:1005E00001A8025D697821A000F04AFD641CA4B254
:1005F000102CF5D3A86840061AD5A868B043A860A7
:10060000204E6F700024E1B26846017069700123CA
:100610006A46287800F035FA3046FFF70DFF22468B
:10062000697812A000F02CFD641CA4B2FF2CEAD95A
:10063000A868800705D5A86802218843A860FFF74D
:100640005FFFA868400705D5A86804218843A86013
:10065000FFF71AFF05B0F0BD231680495630172268
:100660003346552739485760100000205752203A2A
:10067000203078253258203A203078253258200D05
:100680000A00000088130000F8B500256846454FB1
:1006900005703846FFF7D0FEA1216846012601709B
:1006A000414C33466A463146207800F0EAF9384634
:1006B000FFF7C2FE6846027831463CA000F0E0FC3D
:1006C0006846057001236A463146207800F0D3F968
:1006D0006846027831463BA000F0D2FCB221684661
:1006E0000170022601236A463146207800F0C9F9DC
:1006F0003846FFF7A1FE6846027831462BA000F08D
:10070000BFFC6846057001236A463146207800F038
:10071000B2F96846027831462AA000F0B1FCC32144
:1007200068460170032601236A463146207800F0AE
:10073000A8F93846FFF780FE6846027831461BA0CC
:1007400000F09EFC6846057001236A463146207819
:1007500000F091F96846027831461AA000F090FC4A
:10076000D42168460170042601236A463146207868
:1007700000F087F93846FFF75FFE68460278314699
:100780000AA000F07DFC6846057001236A463146E8
:10079000207800F070F968460278314609A000F030
:1007A0006FFCF8BD88130000100000205752203A5B
:1007B000203078253258203A203078253258200DC4
:1007C0000A0000005244203A203078253258203A5E
:1007D000203078253258200D0A000000F0B50023A3
:1007E00001273C469C400C4208D005685C0003266B
:1007F000A640B5431646A640354305605B1C102B4A
:10080000EFD3F0BD044603A000F03AFC204600F010
:10081000FBFEFEE7496E2048617264204661756CFC
:10082000742048616E646C65720A000007480168B4
:100830000748006841430748416100228261052161
:1008400001610169C903FCD50261704720000020E5
:100850000400002000E000E0FFB51D4617460E46EC
:10086000002400F0AFF8009800F07CF8300A00F0A7
:1008700079F8F0B200F076F800F0A4F800980121C1
:10088000084300F06FF86E1E0BE000F011F83855C9
:10089000B44202D100F088F801E000F051F8641C85
:1008A000A4B2AC42F1D300F0A1F8002004B0F0BD36
:1008B000F0B500240B4D2346012627466006040EA2
:1008C0006E60FFF7B3FF2868002800D001200019F0
:1008D000C4B26F60FFF7AAFF5B1CDBB2082BEDD33D
:1008E0002046F0BD8048004070B5104A104D0124EC
:1008F000904201D92C6004E001461046FFF726FC27
:1009000028600C480168090A090201600A4D0222A8
:1009100011462846FFF762FF022201212846FFF711
:100920005DFF06480460446070BD0000005307008E
:1009300020000020400000408040004080480040EF
:1009400030B5074B00241C60FFF770FF01255D6088
:10095000FFF76CFF5C60FFF769FF1D6030BD0000B2
:1009600080480040F0B500230E4D04461F46012686
:10097000200601D52E6000E02F60FFF757FF6E6064
:10098000FFF754FF6F60072B00D12E606006040E46
:10099000FFF74CFF5B1CDBB2082BE9D300F036F805
:1009A000F0BD00008048004000B5054B01201860F4
:1009B0005860FFF73BFF00205860FFF737FF00BD8E
:1009C0008048004010B5084B01241C60FFF72EFF43
:1009D0005C60FFF72BFF00241C60FFF727FF5C60C3
:1009E000FFF724FF002010BD8048004010B5064BE3
:1009F00000201860FFF71AFF01245C60FFF716FF64
:100A00001C60FFF713FF10BD8048004010B50A4B73
:100A100001241C60FFF70AFF5C60FFF707FF1968FD
:100A200000200029586003D0FFF700FF022010BD0E
:100A3000FFF7FCFE002010BD80480040FFB51D46BA
:100A400016460F460024FFF7BDFF0098FFF78AFF08
:100A5000380AFFF787FFF8B2FFF784FF04E0305D44
:100A6000FFF780FF641CA4B2AC42F8D3FFF7BEFFCF
:100A7000002004B0F0BD10B54006000EFFF7ECFEFC
:100A800010BD10B54006000EFFF7D8FF10BD0000E6
:100A9000BFF34F8F04490348C860BFF34F8F00BFB7
:100AA000FDE700000400FA0500ED00E070B55920F4
:100AB0001D4C162288212060226021602368002BB3
:100AC000F9D00420FFF7E6FB1020FFF7C7FC082051
:100AD000FFF7E0FB0820FFF7C1FC00210720FFF72C
:100AE0004BFC124D2846FFF7BDFB01210022890671
:100AF0002846FFF769FC0E4D2846FFF7B3FB01219E
:100B0000002249032846FFF75FFC00F031F801207E
:100B10008007C16BFF2212049143332252048918CB
:100B2000C1630020206070BD00010040103D805F67
:100B30000300C05E0121020E890751188B68012253
:100B4000824013438B608868904388607047000040
:100B500006498A691202FCD408600A2804D188690F
:100B60000002FCD40D200860704700000000074020
:100B7000F8B51D4D28691C4944071CA00068009069
:100B8000640F00204031096805221204114216D179
:100B9000080301D5164800E016488A030FD40A045A
:100BA000920F6B469B5CCA058904D20DC90E891C45
:100BB0008008921C59435043FFF7C8FA80000E4E3C
:100BC000022CB06002D00D49A0000858296A09071C
:100BD000090F491CFFF7BAFA094930604A1080181A
:100BE000FFF7B4FA7060F8BD000200400102020491
:100BF000001BB7000048E80100000020C0160000FC
:100C000040420F0010B559210A481623882201607E
:100C1000036002600468002CF9D007490B680722C2
:100C2000120593430B600B6813430B6000210160B6
:100C300010BD0000000100400002004010B50A4C49
:100C40007D220121D200C906204600F049F8206823
:100C500021060843206008150449086020688905BA
:100C60000843206010BD00002000054000E100E0C6
:100C700010B588B00446202215496846FFF77CFA73
:100C8000144B144A14482033944202D14069000A9C
:100C90000BE09C4202D14069000B06E00F4940691D
:100CA0008C4201D1000C00E0000D4107490F0229E0
:100CB00004D088006946085808B010BD944201D09D
:100CC0009C4202D1FFF70CFBF6E7FFF719FBF3E7B5
:100CD00060170000000005400002004000100540C1
:100CE000F7B517460646FFF7C3FF05460024400840
:100CF000B84201D8022008E039462846FFF726FA14
:100D0000040E02D0611CFFF721FA019921433160E2
:100D10007060641C604301462846FFF717FAFEBD69
:100D200000B50C488168C907C90F11D00122826043
:100D300000F0BEFC08498888431C8B807D23DB00C3
:100D4000984205D3002088800448816B514081631C
:100D500000BD000020000540100000204048004079
:100D600010B50B4CE06911210902084202D104E0E0
:100D700000F032F9A1694904FAD5A169204671222F
:100D8000114203D00921890200F08CF810BD000047
:100D90000000074010B51E48FFF7CCFE1D4CE121B6
:100DA0004902204600F09AF81421204600F008F984
:100DB000A06810218843A060A06820210843A0609B
:100DC0006068154908436060012014490003086009
:100DD000FFF768FA014612A000F052F9FFF76AFA2D
:100DE000014616A000F04CF9FFF76EFA014619A073
:100DF00000F046F9FFF774FA01461CA000F040F934
:100E0000FFF77EFA014620A000F03AF910BD00007D
:100E100010000004000007401108000000E100E09D
:100E20000D0A434C4B5F47657443505546726571DC
:100E3000203A202538640D0A00000000434C4B5F27
:100E400047657448585446726571203A20253864C5
:100E50000D0A0000434C4B5F4765744C5854467272
:100E60006571203A202538640D0A0000434C4B5F21
:100E700047657450434C4B3046726571203A2025CB
:100E800038640D0A00000000434C4B5F4765745006
:100E9000434C4B3146726571203A202538640D0A67
:100EA00000000000CA0102D501221204C2614A05F5
:100EB00003D570228261082282610A0503D5426946
:100EC00001231A4342618A0401D5034A826149041D
:100ED00001D51F214164704701000001F0B587B0C2
:100EE0000F46044600252E4618222E496846FFF775
:100EF00043F92D492D482E4A8C4205D14369006A99
:100F00005B015D0F000A0FE02A4B9C4206D143694A
:100F1000006A5B005D0F0004060F07E0944205D1F4
:100F2000C369006B5B015D0F0607360F002020636D
:100F30000320E060A068204B1840A060012D02D083
:100F4000042D04D00DE0FFF7EBF9019009E08C428D
:100F500001D0944202D1FFF7C3F901E0FFF7D0F9C5
:100F60000490002F1BD0A90068464058711CFFF761
:100F7000EDF80546790840183946FFF7E7F80F49BC
:100F8000801E884207D9F90068183946FFF7DEF855
:100F90000009801E02E0032109070843606207B0D0
:100FA000F0BD0000E0160000000007400002004015
:100FB00000200740001007400FFFF0FFFFFF000078
:100FC000026A120A12020A43026241680122D20234
:100FD000114341607047000010B51C480068C4B25E
:100FE00021461BA000F04CF8782C1CD0582C1AD0AD
:100FF0007F2C03D91CA000F043F810BD1F48342CEF
:101000001BD00ADC302C1ED0312C0ED0322C0FD04D
:10101000332CF2D1816810220CE0352C10D05A2CE0
:1010200001D07A2CE9D1FFF733FD8168022201E07B
:10103000816808221143816010BD81682022F9E790
:1010400081684022F6E781680422F3E70000074048
:1010500055415254785F50726F63657373203D2021
:1010600025630D0A00000000696E76616C696420DA
:10107000636F6D6D616E640D0A000000100000204A
:101080000FB410B503A9044B044A029800F018F8F5
:1010900010BC08BC04B01847BD1500000C000020AF
:1010A00002E008C8121F08C1002AFAD17047704731
:1010B000002001E001C1121F002AFBD1704700008F
:1010C000FFB591B00F460546002606E025280AD058
:1010D000149A139990476D1C761C28780028F5D136
:1010E000304615B0F0BD002400940121F34A02946B
:1010F00000E004436D1C2B780846203B98401042CA
:10110000F7D128782A280ED0022128780246303AD2
:10111000092A15D8009A0A235A43303A80180C43FA
:101120006D1C0090F1E701CF0090002805DA012046
:1011300040030443009840420090022004436D1C89
:1011400028782E2815D10420044368786D1C2A289D
:101150000AD101CF6D1C02900BE002990A22514383
:10116000303940186D1C0290287801463039092921
:10117000F3D928786C2810D006DC4C281AD06828BF
:101180000ED06A2817D104E0742813D07A2812D11F
:1011900010E00120400504430CE00121090501E0B5
:1011A000032109050C436978814203D10120000520
:1011B00024186D1C6D1C287803906E281ED00CDC42
:1011C000632831D004DC00288AD0582811D1B2E03D
:1011D00064287BD069280CD178E073282DD004DCFA
:1011E0006F2870D0702804D1A7E075286CD07828BB
:1011F0006BD0149A13999047761C62E06002400FFE
:10120000022807D003280AD0042838680AD00660CC
:101210003F1D56E03868F11706604160F8E738680E
:101220000680F5E70670F3E7387869460874002011
:10123000487404A80390012003E03868039000205C
:10124000C0433F1D61070FD5002101E00199491CF2
:10125000029A0191914213DA8142F7DB019A0399D4
:10126000895C0029F2D10BE0002101E00199491CC1
:1012700001918142FADB019A0399895C0029F5D139
:1012800001990098139A401A00902146149B00F08F
:101290003BF901998019461807E0039803990078F3
:1012A000491C0391149A139990470198401E01908C
:1012B000401CF2D12146149B139A009800F014F9B7
:1012C00086196D1C09E741E033E034E00A20002173
:1012D000049005916002410F022905D001CFC21789
:1012E0009446032905D007E0FF1DFF08FF0003CF48
:1012F00006E000B2C2179446042902D140B2C117D9
:101300008C4600226146944506DA0A460021404296
:1013100091418C462D2102E0210504D52B216A46FE
:101320001176012103E0E10701D02021F7E70191C7
:1013300054E00A200BE0102009E010200490002166
:101340000420044308200591029003E008200021B6
:10135000059104906002410F022905D001CF0022BF
:101360009446032906D006E0FF1DFF08FF0003CFC7
:101370008C4603E080B2042900D1C0B20021019163
:1013800021072BD50399702906D0049A1021059BBB
:101390004A401A4305D00EE040216A4611760121E9
:1013A00008E06146014306D030216A461176039970
:1013B000517602210191049A0821059B4A401A4363
:1013C0000CD16146014301D1610707D530216A463E
:1013D0001176012101910299491E02910399582920
:1013E00004D037A103910FA90F910DE039A1F9E7BE
:1013F0006146059B049AFEF7D1FE039B8C469B5CDD
:101400000F9A521E0F92137061460143F0D10F984C
:1014100007A9081A20300390600704D501200004B2
:101420008443029801E0012002900399884201DD83
:10143000401A00E000204118029001980918009815
:10144000401A0090E00306D42146149B139A00989A
:1014500000F05AF886190020049008E006A9085CFC
:10146000149A139990470498401C761C0490019993
:101470008842F3DBE0030CD52146149B139A0098B5
:1014800000F042F8861904E0149A3020139990472E
:10149000761C0299481E02900029F5DC08E00F989E
:1014A0000F990078491C0F91149A13999047761C54
:1014B0000399481E03900029F1DCFBE6092801008E
:1014C00030313233343536373839616263646566BA
:1014D000000000003031323334353637383941427C
:1014E0004344454600000000F8B5044600251E466A
:1014F0001746880404D405E039462020B0476D1C07
:10150000641EF9D52846F8BDFFB50446002581B014
:101510001E46C80301D5302700E02027880404D5E3
:1015200005E038460399B0476D1C641EF9D528467E
:1015300005B0F0BDF8B50E460746002525E0294662
:1015400015A0FFF79DFD00242819395C15A0FFF7B1
:1015500097FD641C102CF7DB14A0FFF791FD00240D
:101560002819395C084620385F2803D210A0FFF7FD
:1015700087FD02E00FA0FFF783FD641C761E102C90
:10158000EEDB0DA01035FFF77BFD002ED7DC0AA0A7
:10159000FFF776FDF8BD0000307825303458202064
:1015A00000000000253032582000000020200000FC
:1015B000256300002E0000000A00000010B504465C
:1015C000FFF7C6FA204610BDFFF770FAFFF7E2FBFF
:1015D000012291030648FFF701F90648FFF784F955
:1015E000FFF72CFBFFF750F8FEF7AEFFFCE700001B
:1015F00040400040A0860100C9B201E00170401CDB
:10160000521EFBD27047000010B50446016810A0BE
:10161000FFF736FD11A06168FFF732FD12A0A16847
:10162000FFF72EFD13A0E168FFF72AFD14A0216942
:10163000FFF726FD15A06169FFF722FD16A0A1693D
:10164000FFF71EFD17A0E169FFF71AFD10BD0000AE
:10165000723020203D20307825780A007231202019
:101660003D20307825780A00723220203D203078E5
:1016700025780A00723320203D20307825780A0032
:10168000723132203D20307825780A006C7220209B
:101690003D20307825780A00706320203D20307886
:1016A00025780A00707372203D20307825780A0072
:1016B0000248C168491CC16070470000100000204A
:1016C0000048E8010080000000D8B805009600003E
:1016D000006CDC020000000000000000006CDC0276
:1016E0000048E8010000000000800000006CDC02FF
:1016F00000000000009600000048E8010000000023
:1017000000800000006CDC02000000000096000079
:101710000048E8010000000000800000006CDC02CE
:10172000000000000096000000000000040000001F
:10173000080000000C000000000000000000000095
:101740000000000010000000000000000400000085
:101750000800000000000000040000000800000075
:101760000048E801008000000000000000000000C8
:10177000000000000096000000000000006CDC0289
:10178000A01700000000002024000000A0100000AE
:10179000C41700002400002004030000B010000063
:1017A00000D8B8056000000000D8B80500000000AF
:1017B00050000000000000000000000000000000D9
:0417C0000000000025
:04000005000000F106
:00000001FF
